:100000000C9434000C9450000C9450000C9450004C
:100010000C9450000C9450000C9450000C94500020
:100020000C9450000C9450000C9450000C94500010
:100030000C9450000C9450000C9450000C94500000
:100040000C9450000C9450000C9450000C945000F0
:100050000C9450000C9450000C9450000C945000E0
:100060000C9450000C94500011241FBECFEFD8E028
:10007000DEBFCDBF0E9440000C943E00F894FFCF3D
:100080000E944C002FEF81EE94E021508040904080
:08009000E1F700C00000FFCF02
:080098008FEF87B918B8089535
:0400A0000C940000BC
:00000001FF
