:100000000C9438000C9411010C9411010C94110102
:100010000C9411010C9411010C9411010C94110118
:100020000C9411010C9411010C9411010C94110108
:100030000C9411010C9411010C9411010C941101F8
:100040000C9411010C9411010C9411010C941101E8
:100050000C9411010C9411010C9411010C941101D8
:100060000C9411010C9411010100010600022600FC
:1000700011241FBECFEFD8E0DEBFCDBFE8E6F0E031
:1000800040E017C0B591A59135912591059107FDE7
:100090000CC095918591EF01F92FE82F05900D92F5
:1000A000A217B307D9F7FE0104C01D92A217B30728
:1000B000E1F7EF36F40731F70E94CA000C946000B4
:0400C000F894FFCFE2
:1000C4004D696775656C0054612070696C65206AC0
:0600D400616C746F210055
:1000DA00EF92FF920F931F93CF93DF9300D000D03C
:1000EA0000D0CDB7DEB787B1806387B987B18F609B
:1000FA0087B986E0E0E0F1E0DE01119601900D9209
:10010A008A95E1F78FE39FE10197F1F700C00000BC
:10011A008E010F5F1F4F7E0197E0E90EF11CF80177
:10012A0081918F010E94EF000E151F05C1F72696D7
:10013A000FB6F894DEBF0FBECDBFDF91CF911F91EE
:08014A000F91FF90EF90089562
:10015200CF92DF92EF926B01E82EFB018491E7FCD4
:100162008081882391F00E94FB008FEFC81AD80A81
:10017200E80A8FE39FE10197F1F700C00000F60162
:100182008491E7FC80818111EECFEF90DF90CF90D8
:020192000895CE
:100194000E946D0080E80E94EF0064EC70E080E053
:1001A4000E94A90080EC0E94EF006BEC70E080E0FC
:0C01B4000E94A90080E80E94EF00FFCF2D
:1001C000459A8FE39FE10197F1F700C00000459841
:0E01D0008FE39FE10197F1F700C00000089552
:1001DE00CF93C82F82958F700E9407018C2F8F703E
:0801EE000E940701CF91089562
:1001F600CF93C82F82958F700E940C018C2F8F7021
:080206000E940C01CF91089544
:0A020E0088B944980E94E0000895AA
:0A02180088B9449A0E94E00008959E
:040222000C94000038
:06022600010228060F8012
:00000001FF
