:100000000C9434000C94BA000C94BA000C94BA000E
:100010000C94BA000C94BA000C94BA000C94BA0078
:100020000C94BA000C94BA000C94BA000C94BA0068
:100030000C94BA000C94BA000C94BA000C94BA0058
:100040000C94BA000C94BA000C94BA000C94BA0048
:100050000C94BA000C94BA000C94BA000C94BA0038
:100060000C94BA000C94BA0011241FBECFEFD8E054
:10007000DEBFCDBF0E94B1000C943E00F894FFCFCC
:100080002FEF86E791E0215080409040E1F700C0DB
:100090000000449883E00E94AA008FE39CE9019746
:1000A000F1F700C0000083E00E94AA008FE39CE902
:1000B0000197F1F700C0000083E00E94AA008FE3DF
:1000C0009CE90197F1F700C0000082E00E94AA00BD
:1000D0008FE39CE90197F1F700C0000082E00E94E5
:1000E000AA0088E00E94AA008FE39CE90197F1F73B
:1000F00000C0000080E00E94AA0086E00E94AA00E2
:100100008FE39CE90197F1F700C0000080E00E94B6
:10011000AA008FE00E94AA008FE39CE90197F1F703
:1001200000C0000080E00E94AA0081E00E94AA00B6
:0E0130008FE39CE90197F1F700C000000895ED
:10013E00459A85E08A95F1F70000459885E08A9505
:06014E00F1F70000089526
:0E01540098B18F70982B98B90E949F00089563
:0A0162000E94B6000E944000FFCF8B
:08016C008FEF87B918B8089560
:040174000C940000E7
:00000001FF
