:100000000C9438000C940A010C940A010C940A0117
:100010000C940A010C940A010C940A010C940A0134
:100020000C940A010C940A010C940A010C940A0124
:100030000C940A010C940A010C940A010C940A0114
:100040000C940A010C940A010C940A010C940A0104
:100050000C940A010C940A010C940A010C940A01F4
:100060000C940A010C940A01010001060002180018
:1000700011241FBECFEFD8E0DEBFCDBFE8E6F0E031
:1000800040E017C0B591A59135912591059107FDE7
:100090000CC095918591EF01F92FE82F05900D92F5
:1000A000A217B307D9F7FE0104C01D92A217B30728
:1000B000E1F7EF36F40731F70E94CA000C946000B4
:0400C000F894FFCFE2
:1000C4004D696775656C0054612070696C65206AC0
:0600D400616C746F210055
:1000DA00EF92FF920F931F93CF93DF9300D000D03C
:1000EA0000D0CDB7DEB787B1806387B987B18F609B
:1000FA0087B986E0E0E0F1E0DE01119601900D9209
:10010A008A95E1F78FE39FE10197F1F700C00000BC
:10011A008E010F5F1F4F7E0197E0E90EF11CF80177
:10012A0081918F010E94EC000E151F05C1F72696DA
:10013A000FB6F894DEBF0FBECDBFDF91CF911F91EE
:08014A000F91FF90EF90089562
:10015200CF92DF92EF926B01E82EFB018491E7FCD4
:100162008081882391F00E94FB008FEFC81AD80A81
:10017200E80A8FE39FE10197F1F700C00000F60162
:100182008491E7FC80818111EECFEF90DF90CF90D8
:020192000895CE
:100194000E946D0080E80E94EC0064EC70E080E056
:1001A4000E94A90080EC0E94EC006BEC70E080E0FF
:0601B4000E94A900FFCF2C
:1001BA00459A8FE39FE10197F1F700C00000459847
:0E01CA008FE39FE10197F1F700C00000089558
:1001D800CF93C82F82958F7088B944980E94DD000C
:0E01E800CF70C8B944980E94DD00CF910895F1
:1001F600CF93C82F82958F7088B9449A0E94DD00EC
:0E020600CF70C8B9449A0E94DD00CF910895D0
:040214000C94000046
:06021800010228060F8020
:00000001FF
